{
  "_format": "hh-sol-artifact-1",
  "contractName": "MyToken",
  "sourceName": "contracts/MyToken.sol",
  "abi": [
    {
      "inputs": [],
      "stateMutability": "nonpayable",
      "type": "constructor"
    },
    {
      "anonymous": false,
      "inputs": [
        {
          "indexed": true,
          "internalType": "address",
          "name": "owner",
          "type": "address"
        },
        {
          "indexed": true,
          "internalType": "address",
          "name": "spender",
          "type": "address"
        },
        {
          "indexed": false,
          "internalType": "uint256",
          "name": "value",
          "type": "uint256"
        }
      ],
      "name": "Approval",
      "type": "event"
    },
    {
      "anonymous": false,
      "inputs": [
        {
          "indexed": true,
          "internalType": "address",
          "name": "from",
          "type": "address"
        },
        {
          "indexed": true,
          "internalType": "address",
          "name": "to",
          "type": "address"
        },
        {
          "indexed": false,
          "internalType": "uint256",
          "name": "value",
          "type": "uint256"
        }
      ],
      "name": "Transfer",
      "type": "event"
    },
    {
      "inputs": [],
      "name": "allTokens",
      "outputs": [
        {
          "internalType": "uint256",
          "name": "",
          "type": "uint256"
        }
      ],
      "stateMutability": "view",
      "type": "function"
    },
    {
      "inputs": [
        {
          "internalType": "address",
          "name": "owner",
          "type": "address"
        },
        {
          "internalType": "address",
          "name": "spender",
          "type": "address"
        }
      ],
      "name": "allowance",
      "outputs": [
        {
          "internalType": "uint256",
          "name": "",
          "type": "uint256"
        }
      ],
      "stateMutability": "view",
      "type": "function"
    },
    {
      "inputs": [
        {
          "internalType": "address",
          "name": "spender",
          "type": "address"
        },
        {
          "internalType": "uint256",
          "name": "amount",
          "type": "uint256"
        }
      ],
      "name": "approve",
      "outputs": [
        {
          "internalType": "bool",
          "name": "",
          "type": "bool"
        }
      ],
      "stateMutability": "nonpayable",
      "type": "function"
    },
    {
      "inputs": [
        {
          "internalType": "address",
          "name": "account",
          "type": "address"
        }
      ],
      "name": "balanceOf",
      "outputs": [
        {
          "internalType": "uint256",
          "name": "",
          "type": "uint256"
        }
      ],
      "stateMutability": "view",
      "type": "function"
    },
    {
      "inputs": [
        {
          "internalType": "address",
          "name": "",
          "type": "address"
        }
      ],
      "name": "balances",
      "outputs": [
        {
          "internalType": "uint256",
          "name": "",
          "type": "uint256"
        }
      ],
      "stateMutability": "view",
      "type": "function"
    },
    {
      "inputs": [
        {
          "internalType": "uint256",
          "name": "_tokenGet",
          "type": "uint256"
        }
      ],
      "name": "buyToken",
      "outputs": [],
      "stateMutability": "payable",
      "type": "function"
    },
    {
      "inputs": [],
      "name": "decimals",
      "outputs": [
        {
          "internalType": "uint8",
          "name": "",
          "type": "uint8"
        }
      ],
      "stateMutability": "view",
      "type": "function"
    },
    {
      "inputs": [
        {
          "internalType": "address",
          "name": "spender",
          "type": "address"
        },
        {
          "internalType": "uint256",
          "name": "subtractedValue",
          "type": "uint256"
        }
      ],
      "name": "decreaseAllowance",
      "outputs": [
        {
          "internalType": "bool",
          "name": "",
          "type": "bool"
        }
      ],
      "stateMutability": "nonpayable",
      "type": "function"
    },
    {
      "inputs": [
        {
          "internalType": "address",
          "name": "spender",
          "type": "address"
        },
        {
          "internalType": "uint256",
          "name": "addedValue",
          "type": "uint256"
        }
      ],
      "name": "increaseAllowance",
      "outputs": [
        {
          "internalType": "bool",
          "name": "",
          "type": "bool"
        }
      ],
      "stateMutability": "nonpayable",
      "type": "function"
    },
    {
      "inputs": [],
      "name": "name",
      "outputs": [
        {
          "internalType": "string",
          "name": "",
          "type": "string"
        }
      ],
      "stateMutability": "view",
      "type": "function"
    },
    {
      "inputs": [],
      "name": "symbol",
      "outputs": [
        {
          "internalType": "string",
          "name": "",
          "type": "string"
        }
      ],
      "stateMutability": "view",
      "type": "function"
    },
    {
      "inputs": [],
      "name": "tokenPrice",
      "outputs": [
        {
          "internalType": "uint128",
          "name": "",
          "type": "uint128"
        }
      ],
      "stateMutability": "view",
      "type": "function"
    },
    {
      "inputs": [],
      "name": "totalSale",
      "outputs": [
        {
          "internalType": "uint256",
          "name": "",
          "type": "uint256"
        }
      ],
      "stateMutability": "view",
      "type": "function"
    },
    {
      "inputs": [],
      "name": "totalSupply",
      "outputs": [
        {
          "internalType": "uint256",
          "name": "",
          "type": "uint256"
        }
      ],
      "stateMutability": "view",
      "type": "function"
    },
    {
      "inputs": [
        {
          "internalType": "address",
          "name": "to",
          "type": "address"
        },
        {
          "internalType": "uint256",
          "name": "amount",
          "type": "uint256"
        }
      ],
      "name": "transfer",
      "outputs": [
        {
          "internalType": "bool",
          "name": "",
          "type": "bool"
        }
      ],
      "stateMutability": "nonpayable",
      "type": "function"
    },
    {
      "inputs": [
        {
          "internalType": "address",
          "name": "from",
          "type": "address"
        },
        {
          "internalType": "address",
          "name": "to",
          "type": "address"
        },
        {
          "internalType": "uint256",
          "name": "amount",
          "type": "uint256"
        }
      ],
      "name": "transferFrom",
      "outputs": [
        {
          "internalType": "bool",
          "name": "",
          "type": "bool"
        }
      ],
      "stateMutability": "nonpayable",
      "type": "function"
    }
  ],
  "bytecode": "0x6080604052620186a0600760006101000a8154816fffffffffffffffffffffffffffffffff02191690836fffffffffffffffffffffffffffffffff1602179055503480156200004d57600080fd5b506040518060400160405280600a81526020017f4e61696d20546f6b656e000000000000000000000000000000000000000000008152506040518060400160405280600481526020017f4e41494d000000000000000000000000000000000000000000000000000000008152508160039080519060200190620000d292919062000322565b508060049080519060200190620000eb92919062000322565b505050681b1ae4d6e2ef50000060058190555033600660006101000a81548173ffffffffffffffffffffffffffffffffffffffff021916908373ffffffffffffffffffffffffffffffffffffffff160217905550600554600960003373ffffffffffffffffffffffffffffffffffffffff1673ffffffffffffffffffffffffffffffffffffffff1681526020019081526020016000208190555062000199336005546200019f60201b60201c565b6200057e565b600073ffffffffffffffffffffffffffffffffffffffff168273ffffffffffffffffffffffffffffffffffffffff16141562000212576040517f08c379a000000000000000000000000000000000000000000000000000000000815260040162000209906200040a565b60405180910390fd5b62000226600083836200031860201b60201c565b80600260008282546200023a91906200045a565b92505081905550806000808473ffffffffffffffffffffffffffffffffffffffff1673ffffffffffffffffffffffffffffffffffffffff16815260200190815260200160002060008282546200029191906200045a565b925050819055508173ffffffffffffffffffffffffffffffffffffffff16600073ffffffffffffffffffffffffffffffffffffffff167fddf252ad1be2c89b69c2b068fc378daa952ba7f163c4a11628f55a4df523b3ef83604051620002f891906200042c565b60405180910390a362000314600083836200031d60201b60201c565b5050565b505050565b505050565b8280546200033090620004c1565b90600052602060002090601f016020900481019282620003545760008555620003a0565b82601f106200036f57805160ff1916838001178555620003a0565b82800160010185558215620003a0579182015b828111156200039f57825182559160200191906001019062000382565b5b509050620003af9190620003b3565b5090565b5b80821115620003ce576000816000905550600101620003b4565b5090565b6000620003e1601f8362000449565b9150620003ee8262000555565b602082019050919050565b6200040481620004b7565b82525050565b600060208201905081810360008301526200042581620003d2565b9050919050565b6000602082019050620004436000830184620003f9565b92915050565b600082825260208201905092915050565b60006200046782620004b7565b91506200047483620004b7565b9250827fffffffffffffffffffffffffffffffffffffffffffffffffffffffffffffffff03821115620004ac57620004ab620004f7565b5b828201905092915050565b6000819050919050565b60006002820490506001821680620004da57607f821691505b60208210811415620004f157620004f062000526565b5b50919050565b7f4e487b7100000000000000000000000000000000000000000000000000000000600052601160045260246000fd5b7f4e487b7100000000000000000000000000000000000000000000000000000000600052602260045260246000fd5b7f45524332303a206d696e7420746f20746865207a65726f206164647265737300600082015250565b61155a806200058e6000396000f3fe6080604052600436106100f35760003560e01c80636ff97f1d1161008a578063a457c2d711610059578063a457c2d714610347578063a9059cbb14610384578063dd62ed3e146103c1578063ea4ce239146103fe576100f3565b80636ff97f1d1461028957806370a08231146102b45780637ff9b596146102f157806395d89b411461031c576100f3565b806327e235e3116100c657806327e235e3146101c85780632d296bf114610205578063313ce56714610221578063395093511461024c576100f3565b806306fdde03146100f8578063095ea7b31461012357806318160ddd1461016057806323b872dd1461018b575b600080fd5b34801561010457600080fd5b5061010d610429565b60405161011a9190610fe9565b60405180910390f35b34801561012f57600080fd5b5061014a60048036038101906101459190610dff565b6104bb565b6040516101579190610fce565b60405180910390f35b34801561016c57600080fd5b506101756104de565b6040516101829190611106565b60405180910390f35b34801561019757600080fd5b506101b260048036038101906101ad9190610db0565b6104e8565b6040516101bf9190610fce565b60405180910390f35b3480156101d457600080fd5b506101ef60048036038101906101ea9190610d4b565b610517565b6040516101fc9190611106565b60405180910390f35b61021f600480360381019061021a9190610e3b565b61052f565b005b34801561022d57600080fd5b506102366105ce565b6040516102439190611121565b60405180910390f35b34801561025857600080fd5b50610273600480360381019061026e9190610dff565b6105d7565b6040516102809190610fce565b60405180910390f35b34801561029557600080fd5b5061029e61060e565b6040516102ab9190611106565b60405180910390f35b3480156102c057600080fd5b506102db60048036038101906102d69190610d4b565b610614565b6040516102e89190611106565b60405180910390f35b3480156102fd57600080fd5b5061030661065c565b60405161031391906110eb565b60405180910390f35b34801561032857600080fd5b5061033161067e565b60405161033e9190610fe9565b60405180910390f35b34801561035357600080fd5b5061036e60048036038101906103699190610dff565b610710565b60405161037b9190610fce565b60405180910390f35b34801561039057600080fd5b506103ab60048036038101906103a69190610dff565b610787565b6040516103b89190610fce565b60405180910390f35b3480156103cd57600080fd5b506103e860048036038101906103e39190610d74565b6107aa565b6040516103f59190611106565b60405180910390f35b34801561040a57600080fd5b50610413610831565b6040516104209190611106565b60405180910390f35b60606003805461043890611252565b80601f016020809104026020016040519081016040528092919081815260200182805461046490611252565b80156104b15780601f10610486576101008083540402835291602001916104b1565b820191906000526020600020905b81548152906001019060200180831161049457829003601f168201915b5050505050905090565b6000806104c6610837565b90506104d381858561083f565b600191505092915050565b6000600254905090565b6000806104f3610837565b9050610500858285610a0a565b61050b858585610a96565b60019150509392505050565b60096020528060005260406000206000915090505481565b6000819050600660009054906101000a900473ffffffffffffffffffffffffffffffffffffffff1673ffffffffffffffffffffffffffffffffffffffff166108fc349081150290604051600060405180830381858888f1935050505015801561059c573d6000803e3d6000fd5b506105ca600660009054906101000a900473ffffffffffffffffffffffffffffffffffffffff163383610a96565b5050565b60006012905090565b6000806105e2610837565b90506106038185856105f485896107aa565b6105fe9190611158565b61083f565b600191505092915050565b60055481565b60008060008373ffffffffffffffffffffffffffffffffffffffff1673ffffffffffffffffffffffffffffffffffffffff168152602001908152602001600020549050919050565b600760009054906101000a90046fffffffffffffffffffffffffffffffff1681565b60606004805461068d90611252565b80601f01602080910402602001604051908101604052809291908181526020018280546106b990611252565b80156107065780601f106106db57610100808354040283529160200191610706565b820191906000526020600020905b8154815290600101906020018083116106e957829003601f168201915b5050505050905090565b60008061071b610837565b9050600061072982866107aa565b90508381101561076e576040517f08c379a0000000000000000000000000000000000000000000000000000000008152600401610765906110cb565b60405180910390fd5b61077b828686840361083f565b60019250505092915050565b600080610792610837565b905061079f818585610a96565b600191505092915050565b6000600160008473ffffffffffffffffffffffffffffffffffffffff1673ffffffffffffffffffffffffffffffffffffffff16815260200190815260200160002060008373ffffffffffffffffffffffffffffffffffffffff1673ffffffffffffffffffffffffffffffffffffffff16815260200190815260200160002054905092915050565b60085481565b600033905090565b600073ffffffffffffffffffffffffffffffffffffffff168373ffffffffffffffffffffffffffffffffffffffff1614156108af576040517f08c379a00000000000000000000000000000000000000000000000000000000081526004016108a6906110ab565b60405180910390fd5b600073ffffffffffffffffffffffffffffffffffffffff168273ffffffffffffffffffffffffffffffffffffffff16141561091f576040517f08c379a00000000000000000000000000000000000000000000000000000000081526004016109169061102b565b60405180910390fd5b80600160008573ffffffffffffffffffffffffffffffffffffffff1673ffffffffffffffffffffffffffffffffffffffff16815260200190815260200160002060008473ffffffffffffffffffffffffffffffffffffffff1673ffffffffffffffffffffffffffffffffffffffff168152602001908152602001600020819055508173ffffffffffffffffffffffffffffffffffffffff168373ffffffffffffffffffffffffffffffffffffffff167f8c5be1e5ebec7d5bd14f71427d1e84f3dd0314c0f7b2291e5b200ac8c7c3b925836040516109fd9190611106565b60405180910390a3505050565b6000610a1684846107aa565b90507fffffffffffffffffffffffffffffffffffffffffffffffffffffffffffffffff8114610a905781811015610a82576040517f08c379a0000000000000000000000000000000000000000000000000000000008152600401610a799061104b565b60405180910390fd5b610a8f848484840361083f565b5b50505050565b600073ffffffffffffffffffffffffffffffffffffffff168373ffffffffffffffffffffffffffffffffffffffff161415610b06576040517f08c379a0000000000000000000000000000000000000000000000000000000008152600401610afd9061108b565b60405180910390fd5b600073ffffffffffffffffffffffffffffffffffffffff168273ffffffffffffffffffffffffffffffffffffffff161415610b76576040517f08c379a0000000000000000000000000000000000000000000000000000000008152600401610b6d9061100b565b60405180910390fd5b610b81838383610d17565b60008060008573ffffffffffffffffffffffffffffffffffffffff1673ffffffffffffffffffffffffffffffffffffffff16815260200190815260200160002054905081811015610c07576040517f08c379a0000000000000000000000000000000000000000000000000000000008152600401610bfe9061106b565b60405180910390fd5b8181036000808673ffffffffffffffffffffffffffffffffffffffff1673ffffffffffffffffffffffffffffffffffffffff16815260200190815260200160002081905550816000808573ffffffffffffffffffffffffffffffffffffffff1673ffffffffffffffffffffffffffffffffffffffff1681526020019081526020016000206000828254610c9a9190611158565b925050819055508273ffffffffffffffffffffffffffffffffffffffff168473ffffffffffffffffffffffffffffffffffffffff167fddf252ad1be2c89b69c2b068fc378daa952ba7f163c4a11628f55a4df523b3ef84604051610cfe9190611106565b60405180910390a3610d11848484610d1c565b50505050565b505050565b505050565b600081359050610d30816114f6565b92915050565b600081359050610d458161150d565b92915050565b600060208284031215610d5d57600080fd5b6000610d6b84828501610d21565b91505092915050565b60008060408385031215610d8757600080fd5b6000610d9585828601610d21565b9250506020610da685828601610d21565b9150509250929050565b600080600060608486031215610dc557600080fd5b6000610dd386828701610d21565b9350506020610de486828701610d21565b9250506040610df586828701610d36565b9150509250925092565b60008060408385031215610e1257600080fd5b6000610e2085828601610d21565b9250506020610e3185828601610d36565b9150509250929050565b600060208284031215610e4d57600080fd5b6000610e5b84828501610d36565b91505092915050565b610e6d816111c0565b82525050565b6000610e7e8261113c565b610e888185611147565b9350610e9881856020860161121f565b610ea1816112e2565b840191505092915050565b6000610eb9602383611147565b9150610ec4826112f3565b604082019050919050565b6000610edc602283611147565b9150610ee782611342565b604082019050919050565b6000610eff601d83611147565b9150610f0a82611391565b602082019050919050565b6000610f22602683611147565b9150610f2d826113ba565b604082019050919050565b6000610f45602583611147565b9150610f5082611409565b604082019050919050565b6000610f68602483611147565b9150610f7382611458565b604082019050919050565b6000610f8b602583611147565b9150610f96826114a7565b604082019050919050565b610faa816111cc565b82525050565b610fb981611208565b82525050565b610fc881611212565b82525050565b6000602082019050610fe36000830184610e64565b92915050565b600060208201905081810360008301526110038184610e73565b905092915050565b6000602082019050818103600083015261102481610eac565b9050919050565b6000602082019050818103600083015261104481610ecf565b9050919050565b6000602082019050818103600083015261106481610ef2565b9050919050565b6000602082019050818103600083015261108481610f15565b9050919050565b600060208201905081810360008301526110a481610f38565b9050919050565b600060208201905081810360008301526110c481610f5b565b9050919050565b600060208201905081810360008301526110e481610f7e565b9050919050565b60006020820190506111006000830184610fa1565b92915050565b600060208201905061111b6000830184610fb0565b92915050565b60006020820190506111366000830184610fbf565b92915050565b600081519050919050565b600082825260208201905092915050565b600061116382611208565b915061116e83611208565b9250827fffffffffffffffffffffffffffffffffffffffffffffffffffffffffffffffff038211156111a3576111a2611284565b5b828201905092915050565b60006111b9826111e8565b9050919050565b60008115159050919050565b60006fffffffffffffffffffffffffffffffff82169050919050565b600073ffffffffffffffffffffffffffffffffffffffff82169050919050565b6000819050919050565b600060ff82169050919050565b60005b8381101561123d578082015181840152602081019050611222565b8381111561124c576000848401525b50505050565b6000600282049050600182168061126a57607f821691505b6020821081141561127e5761127d6112b3565b5b50919050565b7f4e487b7100000000000000000000000000000000000000000000000000000000600052601160045260246000fd5b7f4e487b7100000000000000000000000000000000000000000000000000000000600052602260045260246000fd5b6000601f19601f8301169050919050565b7f45524332303a207472616e7366657220746f20746865207a65726f206164647260008201527f6573730000000000000000000000000000000000000000000000000000000000602082015250565b7f45524332303a20617070726f766520746f20746865207a65726f20616464726560008201527f7373000000000000000000000000000000000000000000000000000000000000602082015250565b7f45524332303a20696e73756666696369656e7420616c6c6f77616e6365000000600082015250565b7f45524332303a207472616e7366657220616d6f756e742065786365656473206260008201527f616c616e63650000000000000000000000000000000000000000000000000000602082015250565b7f45524332303a207472616e736665722066726f6d20746865207a65726f20616460008201527f6472657373000000000000000000000000000000000000000000000000000000602082015250565b7f45524332303a20617070726f76652066726f6d20746865207a65726f2061646460008201527f7265737300000000000000000000000000000000000000000000000000000000602082015250565b7f45524332303a2064656372656173656420616c6c6f77616e63652062656c6f7760008201527f207a65726f000000000000000000000000000000000000000000000000000000602082015250565b6114ff816111ae565b811461150a57600080fd5b50565b61151681611208565b811461152157600080fd5b5056fea264697066735822122084f1d5abab8c2ff00d104293eb8acf152df3ef7645f8df89713e56ba22fdc80064736f6c63430008040033",
  "linkReferences": {},
  "deployedLinkReferences": {}
}